:020000040800F2
:1000000000800120A5170008B9160008BB160008DB
:10001000BD160008BF160008C11600080000000049
:10002000000000000000000000000000C1310008D6
:10003000C31600080000000061320008C532000845
:10004000F5170008F5170008F5170008F517000860
:10005000F5170008F5170008F5170008F517000850
:10006000F5170008F5170008F5170008F517000840
:10007000F5170008F5170008F5170008F517000830
:10008000F5170008F5170008F51700080000000034
:10009000000000000000000000000000F51700084C
:1000A000F5170008C5160008F5170008F517000831
:1000B000F5170008F5170008F5170008F5170008F0
:1000C000F5170008F5170008F5170008F5170008E0
:1000D000F5170008F5170008F517000800000000E4
:1000E000F5170008F5170008F517000800000000D4
:1000F000000000000000000000000000F5170008EC
:1001000000000000F5170008F5170008F5170008B3
:1001100000000000000000000000000000000000DF
:10012000FD140008F5170008F5170008F51700087A
:10013000F5170008000000000000000000000000AB
:10014000000000000000000000000000F51700089B
:10015000F5170008F5170008F5170008F51700084F
:10016000F5170008F5170008000000000000000067
:10017000000000000000000000000000000000007F
:1001800000000000F517000800000000000000005B
:04019000F517000857
:1001C00081F0004102E000BF83F0004330B54FEA08
:1001D00041044FEA430594EA050F08BF90EA020F75
:1001E0001FBF54EA000C55EA020C7FEA645C7FEA08
:1001F000655C00F0E2804FEA5454D4EB5555B8BF2B
:100200006D420CDD2C4480EA020281EA030382EA9B
:10021000000083EA010180EA020281EA0303362D2D
:1002200088BF30BD11F0004F4FEA01314FF4801C00
:100230004CEA113102D0404261EB410113F0004F12
:100240004FEA03334CEA133302D0524263EB4303C9
:1002500094EA050F00F0A780A4F10104D5F1200E67
:100260000DDB02FA0EFC22FA05F2801841F10001C2
:1002700003FA0EF2801843FA05F359410EE0A5F196
:1002800020050EF1200E012A03FA0EFC28BF4CF0C7
:10029000020C43FA05F3C01851EBE37101F000457D
:1002A00007D54FF0000EDCF1000C7EEB00006EEB8A
:1002B0000101B1F5801F1BD3B1F5001F0CD3490814
:1002C0005FEA30004FEA3C0C04F101044FEA44526B
:1002D00012F5800F80F09A80BCF1004F08BF5FEAF2
:1002E000500C50F1000041EB045141EA050130BDD2
:1002F0005FEA4C0C404141EB0101013C28BFB1F5E4
:10030000801FE9D291F0000F04BF01460020B1FA2E
:1003100081F308BF2033A3F10B03B3F120020CDA01
:100320000C3208DD02F1140CC2F10C0201FA0CF0DF
:1003300021FA02F10CE002F11402D8BFC2F1200C44
:1003400001FA02F120FA0CFCDCBF41EA0C019040FA
:10035000E41AA2BF01EB0451294330BD6FEA040443
:100360001F3C1CDA0C340EDC04F11404C4F120022E
:1003700020FA04F001FA02F340EA030021FA04F340
:1003800045EA030130BDC4F10C04C4F1200220FA97
:1003900002F001FA04F340EA0300294630BD21FAD5
:1003A00004F0294630BD94F0000F83F4801306BF9B
:1003B00081F480110134013D4EE77FEA645C18BF8F
:1003C0007FEA655C29D094EA050F08BF90EA020F26
:1003D00005D054EA000C04BF1946104630BD91EA1E
:1003E000030F1EBF0021002030BD5FEA545C05D121
:1003F0004000494128BF41F0004130BD14F5800460
:100400003CBF01F5801130BD01F0004545F0FE41D3
:1004100041F470014FF0000030BD7FEA645C1ABF08
:10042000194610467FEA655C1CBF0B46024650EA3F
:10043000013406BF52EA033591EA030F41F400216B
:1004400030BD00BF90F0000F04BF0021704730B5F1
:100450004FF4806404F132044FF000054FF00001C6
:1004600050E700BF90F0000F04BF0021704730B587
:100470004FF4806404F1320410F0004548BF40425C
:100480004FF000013EE700BF42004FEAE2014FEAB1
:1004900031014FEA02701FBF12F07F4393F07F4F8C
:1004A00081F06051704732F07F4208BF704793F08F
:1004B0007F4F04BF41F40021704730B54FF46074A2
:1004C00001F0004521F000411CE700BF50EA0102A5
:1004D00008BF704730B54FF000050AE050EA01024E
:1004E00008BF704730B511F0004502D5404261EBBE
:1004F00041014FF4806404F132045FEA915C3FF4FF
:10050000D8AE4FF003025FEADC0C18BF03325FEA9B
:10051000DC0C18BF033202EBDC02C2F1200300FA4C
:1005200003FC20FA02F001FA03FE40EA0E0021FA71
:1005300002F11444BDE600BF53B94AB9002908BF0F
:1005400000281CBF4FF0FF314FF0FF3000F00CB817
:10055000ADF1080C6DE904CE04F0A2F9DDF804E079
:10056000DDE9022304B07047704700BF844641EACA
:10057000000313F003036DD1403A41D351F8043B1B
:1005800040F8043B51F8043B40F8043B51F8043B6D
:1005900040F8043B51F8043B40F8043B51F8043B5D
:1005A00040F8043B51F8043B40F8043B51F8043B4D
:1005B00040F8043B51F8043B40F8043B51F8043B3D
:1005C00040F8043B51F8043B40F8043B51F8043B2D
:1005D00040F8043B51F8043B40F8043B51F8043B1D
:1005E00040F8043B51F8043B40F8043B51F8043B0D
:1005F00040F8043B51F8043B40F8043B403ABDD27C
:10060000303211D351F8043B40F8043B51F8043B1D
:1006100040F8043B51F8043B40F8043B51F8043BDC
:1006200040F8043B103AEDD20C3205D351F8043BAC
:1006300040F8043B043AF9D2043208D0D2071CBF78
:1006400011F8013B00F8013B01D30B8803806046A1
:10065000704700BF082A13D38B078DD010F0030317
:100660008AD0C3F10403D21ADB071CBF11F8013B87
:1006700000F8013B80D331F8023B20F8023B7BE7D6
:10068000043AD9D3013A11F8013B00F8013BF9D201
:100690000B7803704B7843708B788370604670479B
:1006A000000000000000000000000000000000004A
:1006B000000000000000000000000000000000003A
:1006C00030B490F800F020F007016FF0000C10F04B
:1006D000070491F820F040F048804FF000046FF0DC
:1006E0000700D1E9002391F840F000F1080082FAF8
:1006F0004CF2A4FA8CF283FA4CF3A2FA8CF34BBBC3
:10070000D1E9022382FA4CF200F10800A4FA8CF23B
:1007100083FA4CF3A2FA8CF3E3B9D1E9042382FA09
:100720004CF200F10800A4FA8CF283FA4CF3A2FA1E
:100730008CF37BB9D1E9062301F1200182FA4CF256
:1007400000F10800A4FA8CF283FA4CF3A2FA8CF3BD
:10075000002BC6D0002A04BF04301A4612BAB2FADF
:1007600082F200EBD20030BC7047D1E9002304F0E4
:100770000305C4F100004FEAC50514F0040F91F819
:1007800040F00CFA05F562EA05021CBF63EA0503B6
:1007900062464FF00004AAE70000000000000000DD
:1007A00001F0FF01102A2BDB10F0070F08D010F822
:1007B000013B013A8B422DD010F0070F42B3F6D126
:1007C000F0B441EA012141EA014122F007047FF03F
:1007D00000070023F0E80256083C85EA010586EA96
:1007E000010685FA47F5A3FA87F586FA47F6A5FAD2
:1007F00087F68EB9EED1F0BC01F0FF0102F00702DE
:1008000032B110F8013B013A83EA010313B1F8D188
:100810000020704701387047002D06BF3546033869
:10082000073815F0010F07D1013015F4807F02BFA2
:10083000013015F4C03F0130F0BC0138704700BFF3
:1008400070B54FF0FF0C4CF4E06C1CEA11541DBF66
:100850001CEA135594EA0C0F95EA0C0F00F0DEF831
:100860002C4481EA030621EA4C5123EA4C5350EA16
:10087000013518BF52EA033541F4801143F4801367
:1008800038D0A0FB02CE4FF00005E1FB02E506F0F8
:100890000042E0FB03E54FF00006E1FB03569CF04D
:1008A000000F18BF4EF0010EA4F1FF04B6F5007F53
:1008B00064F5407404D25FEA4E0E6D4146EB0606C5
:1008C00042EAC62141EA55514FEAC52040EA5E504E
:1008D0004FEACE2EB4F1FD0C88BFBCF5E06F1ED8F8
:1008E000BEF1004F08BF5FEA500E50F1000041EB2F
:1008F000045170BD06F0004646EA010140EA0200DC
:1009000081EA0301B4EB5C04C2BFD4EB0C0541EAFD
:10091000045170BD41F480114FF0000E013C00F312
:10092000AB8014F1360FDEBF002001F0004170BD36
:10093000C4F10004203C35DA0C341BDC04F114044F
:10094000C4F1200500FA05F320FA04F001FA05F2DB
:1009500040EA020001F0004221F0004110EBD370A8
:1009600021FA04F642EB06015EEA430E08BF20EAD4
:10097000D37070BDC4F10C04C4F1200500FA04F377
:1009800020FA05F001FA04F240EA020001F0004109
:1009900010EBD37041F100015EEA430E08BF20EA7C
:1009A000D37070BDC4F1200500FA05F24EEA020EC4
:1009B00020FA04F301FA05F243EA020321FA04F0F3
:1009C00001F0004121FA04F220EA020000EBD370AA
:1009D0005EEA430E08BF20EAD37070BD94F0000FAA
:1009E0000FD101F00046400041EB010111F4801FDE
:1009F00008BF013CF7D041EA060195F0000F18BF8F
:100A0000704703F00046520043EB030313F4801FCA
:100A100008BF013DF7D043EA0603704794EA0C0F84
:100A20000CEA135518BF95EA0C0F0CD050EA41069A
:100A300018BF52EA4306D1D181EA030101F0004117
:100A40004FF0000070BD50EA410606BF104619463F
:100A500052EA430619D094EA0C0F02D150EA01364B
:100A600013D195EA0C0F05D152EA03361CBF10468C
:100A700019460AD181EA030101F0004141F0FE412B
:100A800041F470014FF0000070BD41F0FE4141F4AF
:100A9000780170BD70B54FF0FF0C4CF4E06C1CEAAF
:100AA00011541DBF1CEA135594EA0C0F95EA0C0F64
:100AB00000F0A7F8A4EB050481EA030E52EA03351F
:100AC0004FEA013100F088804FEA03334FF0805540
:100AD00045EA131343EA12634FEA022245EA11156D
:100AE00045EA10654FEA00260EF000419D4208BF1E
:100AF000964244F1FD0404F5407402D25B084FEACB
:100B00003202B61A65EB03055B084FEA32024FF476
:100B100080104FF4002CB6EB020E75EB030E22BFD3
:100B2000B61A754640EA0C005B084FEA3202B6EB93
:100B3000020E75EB030E22BFB61A754640EA5C0042
:100B40005B084FEA3202B6EB020E75EB030E22BFD2
:100B5000B61A754640EA9C005B084FEA3202B6EBD3
:100B6000020E75EB030E22BFB61A754640EADC0092
:100B700055EA060E18D04FEA051545EA16754FEAF4
:100B800006164FEAC30343EA52734FEAC2025FEA12
:100B90001C1CC0D111F4801F0BD141EA00014FF0A1
:100BA00000004FF0004CB6E711F4801F04BF014372
:100BB0000020B4F1FD0C88BFBCF5E06F3FF6AFAE8E
:100BC000B5EB030C04BFB6EB020C5FEA500C50F11E
:100BD000000041EB045170BD0EF0004E4EEA1131A1
:100BE00014EB5C04C2BFD4EB0C0541EA045170BDA8
:100BF00041F480114FF0000E013C90E645EA060EEC
:100C00008DE60CEA135594EA0C0F08BF95EA0C0F19
:100C10003FF43BAF94EA0C0F0AD150EA01347FF461
:100C200034AF95EA0C0F7FF425AF104619462CE738
:100C300095EA0C0F06D152EA03353FF4FDAE10469B
:100C4000194622E750EA410618BF52EA43067FF4EC
:100C5000C5AE50EA41047FF40DAF52EA43057FF47C
:100C6000EBAE12E74FF0FF3C06E000BF4FF0010C87
:100C700002E000BF4FF0010C4DF804CD4FEA410CEB
:100C80007FEA6C5C4FEA430C18BF7FEA6C5C1BD0B8
:100C900001B050EA410C0CBF52EA430C91EA030F39
:100CA00002BF90EA020F0020704710F1000F91EA96
:100CB000030F58BF994208BF90422CBFD8176FEA64
:100CC000E37040F0010070474FEA410C7FEA6C5C32
:100CD00002D150EA013C07D14FEA430C7FEA6C5C39
:100CE000D6D152EA033CD3D05DF8040B704700BF65
:100CF0008446104662468C461946634600E000BFB3
:100D000001B5FFF7B7FF002848BF10F1000F01BD84
:100D10004DF808EDFFF7F4FF0CBF012000205DF84F
:100D200008FB00BF4DF808EDFFF7EAFF34BF0120D4
:100D300000205DF808FB00BF4DF808EDFFF7E0FF6D
:100D400094BF012000205DF808FB00BF4DF808EDBE
:100D5000FFF7CEFF94BF012000205DF808FB00BF25
:100D60004DF808EDFFF7C4FF34BF012000205DF807
:100D700008FB00BF4FEA410C7FEA6C5C02D150EAED
:100D8000013C0AD14FEA430C7FEA6C5C02D152EA83
:100D9000033C02D14FF0000070474FF00100704754
:100DA0004FEA410212F5001215D211D56FF4787393
:100DB000B3EB625212D94FEAC12343F0004343EA36
:100DC000505311F0004F23FA02F018BF4042704711
:100DD0004FF00000704750EA013005D111F000409B
:100DE00008BF6FF0004070474FF00000704700BF31
:100DF0000348044B834202D0034B03B118477047AA
:100E0000C4060020C4060020000000000548064B70
:100E10001B1AD90F01EBA301491002D0034B03B1F8
:100E200018477047C4060020C406002000000000D8
:100E300010B5064C237843B9FFF7DAFF044B13B122
:100E40000448AFF300800123237010BDC8060020C2
:100E50000000000034AF000808B5054B1BB1054980
:100E60000548AFF30080BDE80840FFF7CFBF00BFE3
:100E700000000000CC06002034AF0008034B0360E4
:100E8000034B0B6080231360704700BFE80800200D
:100E9000E406002010B584B015E09FED3B7A77EEB4
:100EA000C77ADFED3A6A87EEA67ADFED397A67EE28
:100EB000277ACDED037A4FF0FF31364B186802F0F8
:100EC00047FE012851D04FF0FF31334B186802F034
:100ED0003FFE0128F7D1314BD3ED007AF8EE677A67
:100EE0009FED2F7A67EE877A9FED2E6A87EE865AFE
:100EF000D3ED017AF8EE677A67EE877AC7EE865A05
:100F0000D3ED027AF8EE677A67EE877AC7EE864A03
:100F1000D3ED036AF8EE666A66EE876AC6EE867AF5
:100F20009FED1B6A65EE066ACDED006ADFED1E6A75
:100F300065EEA66ACDED016AC4EE876A26EE867A72
:100F40008DED027A9FED107AF4EEC77AF1EE10FA89
:100F500001D5F0EE477A9FED157AF4EEC77AF1EEFF
:100F600010FA9ADDF0EE477A97E7114C04AB13E9DB
:100F70000F0084E80F0000231A4619460548006850
:100F800002F0B2FC9FE700BFCDCC4C3F6766464005
:100F90000000C842700A0020740A0020780A00206D
:100FA0003333534000F07F45000048439A9979401D
:100FB000600A002000B585B024E0214B0FCB0DF175
:100FC000100C0CE90F0000231A4619461D48006852
:100FD00002F08AFC1EE0002201211B4801F00CFAFD
:100FE0009DED027ADFED197AB4EEE77AF1EE10FAB0
:100FF0001FD501220221144801F0FEF94FF4FA70C6
:1010000003F0FEF94FF0FF310E4B186802F0A0FD1F
:101010000128D2D09DED007AF3EE0E7AB4EEE77A95
:10102000F1EE10FAD7DD01221146074801F0E4F98C
:10103000D6E700220221044801F0DEF9DEE700BF16
:10104000600A0020700A00200004024000002042D4
:1010500000B5ADB033E01E4B0FCB0DF1B00C0CE979
:101060000F0000231A4619461A48006802F03CFC9B
:101070002B98FFF709FACDE906012A98FFF704FA41
:10108000CDE904012998FFF7FFF9CDE9020128987D
:10109000FFF7FAF9CDE900010F4A802108A803F013
:1010A0004FFE08A8FFF70CFB4FF0FF3382B208A9F0
:1010B0000A4801F07AFF4FF47A7003F0A1F94FF07B
:1010C000FF31044B186802F043FD0128C3D0CFE77D
:1010D000600A0020700A002050AF0008880A002033
:1010E00000B5ADB033E01E4B0FCB0DF1B00C0CE9E9
:1010F0000F0000231A4619461A48006802F0F4FB54
:101100002A98FFF7C1F9CDE906012998FFF7BCF944
:10111000CDE904012B98FFF7B7F9CDE90201289832
:10112000FFF7B2F9CDE900010F4A802108A803F0CA
:1011300007FE08A8FFF7C4FA4FF0FF3382B208A9F0
:101140000A4801F032FF4FF4FA6003F059F94FF00A
:10115000FF31044B186802F0FBFC0128C3D0CFE735
:10116000600A0020700A002088AF0008880A00206A
:1011700002680E4B9A4200D0704700B583B000233E
:10118000019301A90A4B186802F089FC019B4BB13D
:101190004FF0E0234FF08052C3F8042DBFF34F8F80
:1011A000BFF36F8F03B05DF804FB00BF0020014068
:1011B000740A002000B589B00022039204920592BF
:1011C000069207920092144B196B41F001011963CA
:1011D000196B01F00101009100990192196B41F026
:1011E00002011963196B01F0020101910199029248
:1011F0001A6B42F004021A631B6B03F004030293A0
:10120000029B032303930123049303A9034801F0E2
:101210000FF809B05DF804FB0038024000040240FA
:10122000FEE7000000B595B03022002108A803F0C9
:1012300013FE0023039304930593069307930193EE
:101240001F4A116C41F080511164126C02F08052FF
:101250000192019A02931B490A6822F4404242F427
:1012600000420A600A6802F440420292029A022195
:10127000089101220B9210220C920E910F93109262
:101280004FF4A8731193042312930723139308A810
:1012900001F0B8F880B90F230393022104910023D1
:1012A00005934FF480520692079303A801F014FBB4
:1012B00020B915B05DF804FBFFF7B2FFFFF7B0FFF0
:1012C000003802400070004000B583B00023019355
:1012D000194A116B41F480011163126B02F4800210
:1012E0000192019A1548164A026043608360C36008
:1012F0004FF4806202614FF4805242614FF48042A9
:1013000082614FF48072C2614FF400320262436224
:1013100000F004FE70B90B4A084B93639A630022F5
:101320000521382000F05CFD382000F069FD03B095
:101330005DF804FBFFF774FF00380240CC0A002080
:10134000106402402C0B002000B585B000230093F0
:101350000193029303932448244A02604FF480329D
:101360004260836001220261027680F82030C3620D
:10137000C3600421C16180F83020436100F0F6FAB7
:1013800040BB00230093012301930323029369468A
:10139000154800F015FCF8B90123009302230193CE
:1013A0006946114800F00CFCC0B9022300930323E6
:1013B000019369460C4800F003FC88B903230093AD
:1013C000042301936946084800F0FAFB50B905B0C0
:1013D0005DF804FBFFF724FFFFF722FFFFF720FF74
:1013E000FFF71EFFFFF71CFF2C0B00200020014021
:1013F00008B50A480A4B03604FF4E1334360002309
:101400008360C36003610C2242618361C36101F0A8
:101410009DFD00B908BDFFF703FF00BF880A00204B
:101420000044004000B583B000F0E6F9FFF7FAFE93
:10143000FFF7C0FEFFF748FFFFF786FFFFF7D8FF73
:1014400004222249224800F0BDFA08B1FFF7E8FE65
:1014500003220021012002F023FA1E4B186000280D
:1014600030D0012002F010FB1B4B186060B3002449
:1014700001940323009323464FF4807217491848C0
:1014800002F039FE01940223009323464FF4807248
:101490001449154802F02FFE0194012500952346BA
:1014A0004FF480721149124802F025FE0194009514
:1014B00023464FF480720F490F4802F01CFE02F0E1
:1014C0004DFEFEE7FFF7ACFEFFF7AAFE780A00200C
:1014D0002C0B0020740A0020700A0020ACAF00081A
:1014E000950E0008B8AF0008B50F0008C4AF00089B
:1014F00051100008D0AF0008E110000808B50248FC
:1015000000F0A8FD08BD00BFCC0A002000B583B0E4
:10151000002200920D4B596C41F480415964596C82
:1015200001F48041009100990192196C41F08051C1
:1015300019641B6C03F080530193019B0F216FF022
:10154000010000F04DFC03B05DF804FB00380240E0
:1015500000B589B000230393049305930693079382
:10156000026803F1804303F590339A4202D009B038
:101570005DF804FB0021019103F58C335A6C42F4B1
:1015800080725A645A6C02F480720192019A02913C
:101590001A6B42F001021A631B6B03F00103029302
:1015A000029B532303930323049303A9014800F0F0
:1015B0003FFEDCE70000024000B589B00023039342
:1015C00004930593069307930268144B9A4202D042
:1015D00009B05DF804FB0021019103F5FA331A6CA0
:1015E00042F400321A641A6C02F400320192019A39
:1015F00002911A6B42F001021A631B6B03F00103A4
:101600000293029B0C230393022304930723079363
:1016100003A9034800F00CFEDAE700BF00440040D5
:101620000000024030B589B00546002401941D4BEE
:101630005A6C42F001025A645B6C03F0010301939F
:10164000019B02A903A801F01DFA01F00BFA164A4A
:10165000A2FB00239B0C013B1448154A026040F298
:10166000E732C260436004618460846101F076FB0C
:10167000044610B1204609B030BD0C4801F022FAF2
:1016800004460028F6D1192000F0BAFB0F2D01D92D
:101690000124EFE700222946192000F0A1FB054BA9
:1016A0001D60E7E70038024083DE1B43740B002017
:1016B0000000014004000020FEE7FEE7FEE7FEE731
:1016C000FEE7704708B5024801F03DFA08BD00BFCB
:1016D000740B00200120704708B503F091FC16231D
:1016E00003604FF0FF3008BD08B54FF0FF31FFF742
:1016F000F3FFFEE770B50C461646002506E0AFF393
:101700000080214601F8010B01350C46B542F6DB9D
:10171000304670BD70B50C461646002504E014F83E
:10172000010BAFF300800135B542F8DB304670BDE8
:101730004FF0FF3070474FF400534B60002070476C
:10174000012070470020704710B503460C4A0D4930
:101750000D48006840B10C4800680344521A934297
:1017600006D8094A136010BD0748084C0460F2E728
:1017700003F046FC0C2303604FF0FF30F3E700BF9B
:101780000080012000040000BC0B0020304C002031
:10179000034AD2F8883043F47003C2F888307047A7
:1017A00000ED00E0DFF834D00D480E490E4A00236A
:1017B00002E0D458C4500433C4188C42F9D30B4A05
:1017C0000B4C002301E013600432A242FBD3FFF76D
:1017D000DFFF03F01BFCFFF725FE704700800120B0
:1017E00000000020C406002000B40008C806002045
:1017F0002C4C0020FEE7000008B50B4B1A6842F4A1
:1018000000721A601A6842F480621A601A6842F420
:1018100080721A60032000F0D1FA0F20FFF702FF58
:10182000FFF774FE002008BD003C0240014B186821
:10183000704700BFC00B00204A4B5A6822F4403268
:101840005A605A6841680A435A600268536823F430
:101850008073536002685368016943EA012353604F
:101860000268536823F040735360026853688168CC
:101870000B4353600268936823F40063936002682B
:101880009368C1680B439360826A374B9A4257D082
:101890000268936823F07063936002689368816ABA
:1018A0000B4393600268936823F04053936002688F
:1018B0009368C16A0B4393600268936823F0020344
:1018C000936002689368017E43EA4103936090F855
:1018D0002030002B3FD00268536843F4006353600C
:1018E0000268536823F46043536001684B68426A9E
:1018F000013A43EA42334B600268D36A23F470032F
:10190000D3620168CB6AC269013A43EA0253CB62EF
:101910000268936823F4007393600268936890F8F8
:10192000301043EA412393600268936823F4806394
:10193000936002689368416943EA8123936070472A
:101940000268936823F0706393600268936823F0E1
:1019500040539360B0E70268536823F40063536018
:10196000CAE700BF002301400100000F38B310B5E3
:101970000446036C43B1236C13F0100F0BD001200D
:10198000002384F83C3010BDFFF7E2FD00236364C0
:1019900084F83C30EFE7236C23F4885323F00203F0
:1019A00043F0020323642046FFF746FF00206064F3
:1019B000236C23F0030343F001032364E0E70120D9
:1019C0007047000010B582B013460022019290F8D3
:1019D0003C20012A00F094800446012280F83C203B
:1019E0000268906810F0010F13D1906840F0010078
:1019F0009060464A1068464AA2FB0020800C00EB2B
:101A00004000019002E001980138019001980028FF
:101A1000F9D12268906810F4807F03D0906820F498
:101A2000807090602268906810F0010F5DD0206C8B
:101A300020F4E06020F0010040F4807020645268DF
:101A400012F4806F05D0226C22F4405242F480528E
:101A50002264226C12F4805F34D0626C22F00602A1
:101A60006264002284F83C20A26B2A48D063A26BF7
:101A700029481064A26B2948D06422686FF02200C4
:101A800010602068426842F080624260206882688C
:101A900042F48072826020680A4600F14C01A06B1B
:101AA00000F0A2FA1E4B5B6813F01F0F0DD12368E4
:101AB0009A6812F0405F25D19A6842F080429A609D
:101AC00000201BE000226264CBE72368154A9342A2
:101AD00001D0002012E09A6812F0405F14D19A6899
:101AE00042F080429A60002008E0236C43F010032B
:101AF0002364636C43F001036364002002B010BDF3
:101B00000220FBE70020F9E70020F7E700000020B3
:101B100083DE1B434D1B00082B1B0008371B0008EE
:101B20000023014000200140704708B5806BFFF79B
:101B3000FBFF08BD704708B5806B40230364436C0E
:101B400043F004034364FFF7F5FF08BD08B50346FF
:101B5000806B026C12F0500F25D1036C43F40073BC
:101B6000036403689A6812F0405F19D1027EBAB923
:101B7000DA6A12F4700F03D09A6812F4806F0FD1F2
:101B80005A6822F020025A60036C23F480730364C5
:101B9000036C13F4805F03D1036C43F0010303640F
:101BA000FFF7E6FA08BD026C12F0100F04D1826B49
:101BB000D26C18469047F5E7FFF7BCFFF2E700004C
:101BC00030B482B00022019290F83C20012A00F04B
:101BD000B6800346012280F83C200A68092A40D9D1
:101BE0000468E06892B202EB42021E3A4FF0070C22
:101BF0000CFA02F220EA0202E2601C68E0680A883D
:101C000002EB42021E3A8D6805FA02F20243E260DC
:101C10004A68062A3CD81C68606B02EB8202053ACF
:101C20004FF01F0C0CFA02F220EA020262631C68F9
:101C3000606B4A6802EB8202053AB1F800C00CFA08
:101C400002F20243626318683E4A904250D018681C
:101C50003C4A904255D0002083F83C0002B030BC92
:101C600070470468206992B202EB42024FF0070C01
:101C70000CFA02F220EA020222611C6820690A883A
:101C800002EB42028D6805FA02F202432261BFE7CD
:101C90000C2A16D81D68286B02EB8202233A1F24F7
:101CA00004FA02F220EA02022A631D68286B4A68DD
:101CB00002EB8202233A0C8804FA02F202432A63FE
:101CC000C1E71D68E86A02EB8202413A1F2404FA68
:101CD00002F220EA0202EA621D68E86A4A6802EB40
:101CE0008202413A0C8804FA02F20243EA62AAE74D
:101CF0000A68122AABD11448426842F4800242605A
:101D0000A5E70A68103A012AA5D80F48426842F4AC
:101D1000000242600A68102A9DD10C4A12680C49E0
:101D2000A1FB0212920C02EB82025200019202E02D
:101D3000019A013A0192019A002AF9D18BE7022017
:101D40008CE700BF0020014000230140000000207C
:101D500083DE1B43002808DB0901C9B200F16040A3
:101D600000F5614080F80013704700F00F00090192
:101D7000C9B2014B1954704714ED00E000B500F0F2
:101D80000700C0F1070CBCF1040F28BF4FF0040C92
:101D9000031D062B0FD9C31E4FF0FF3E0EFA0CF0A9
:101DA00021EA000199400EFA03FE22EA0E0241EAFE
:101DB00002005DF804FB0023EEE70000074AD36849
:101DC00023F4E0631B041B0C000200F4E0600343F7
:101DD00043F0BF6343F40033D360704700ED00E08D
:101DE00010B50446054BD868C0F30220FFF7C6FFC4
:101DF00001462046FFF7AEFF10BD00BF00ED00E03A
:101E0000002807DB00F01F02400901239340024A2B
:101E100042F82030704700BF00E100E030B40568B0
:101E20002C6824F480242C60046863608368402B51
:101E300005D0036899600368DA6030BC70470368B6
:101E40009A600368D960F8E710B40368D9B2103912
:101E50000C4AA2FB014212090B4CA25CC2655F292D
:101E600009D923F47F7323F0030304338365806D62
:101E70005DF8044B704723F47F7323F003038365FD
:101E8000F5E700BFABAAAAAAF4AF0008836A82698B
:101E900092B9012B0AD0022B02D00BB1002070475F
:101EA000C36A13F0807F28D100207047C36AB3F162
:101EB000C07F24D000207047B2F5005F09D0022B0C
:101EC00025D9032B25D1C36A13F0807F23D10020AD
:101ED0007047032B03D8DFE803F01404140A002032
:101EE0007047C36A13F0807F0DD100207047C36A2A
:101EF000B3F1C07F09D00020704701207047012056
:101F00007047012070470120704701207047012071
:101F100070470020704701207047000070B50446EC
:101F2000FFF784FC002C5BD00546022384F8353093
:101F3000002384F834302268136823F0010313600F
:101F400023681A6812F0010F0AD0FFF76FFC431BD9
:101F5000052BF5D920236365032084F8350070BD77
:101F60001A68204911406268A0680243E068024391
:101F70002069024360690243A0690243E0690243A9
:101F8000206A02430A43616A04291ED01A60266847
:101F9000756925F00705636A1D43042B07D1A36A01
:101FA0001D43E36A1BB12046FFF770FF90B97561CE
:101FB0002046FFF749FFE26D3F23934083600020F6
:101FC0006065012384F83530C9E7E16A206B01437D
:101FD0000A43DBE740236365012084F83500BEE750
:101FE0000120BCE73F8010F038B50446856D90F8BD
:101FF000340001282BD0012084F8340094F83500F7
:10200000C0B2012804D0002384F83430022038BD47
:10201000022084F83500002060652046FFF7FEFEB0
:10202000E26D3F239340AB602268136843F01603D0
:102030001360236C23B12268136843F00803136014
:102040002268136843F0010313600020DFE70220D9
:10205000DDE70000F0B583B0044600230193724B26
:102060001D68724BA3FB0535AD0A876D3E68C26DD6
:1020700008239340334210D003681A6812F0040F0B
:102080000BD01A6822F004021A60C26D0823934034
:10209000BB60436D43F001034365E26D0123934050
:1020A000334209D02268526912F0800F04D0BB601D
:1020B000636D43F002036365E26D04239340334292
:1020C00009D02268126812F0020F04D0BB60636D61
:1020D00043F004036365E26D10239340334224D040
:1020E0002268126812F0080F1FD0BB6023681A68BC
:1020F00012F4802F0DD01B6813F4002F04D1236C31
:102100009BB12046984710E0A36C73B120469847D6
:102110000BE01A6812F4807F03D11A6822F00802DB
:102120001A60236C0BB120469847E26D2023934040
:10213000334255D02268126812F0100F50D0BB60A5
:1021400094F83530DBB2052B0ED023681A6812F4F0
:10215000802F33D01B6813F4002F2AD1636C002B1F
:102160003ED0204698473BE02268136823F01603D0
:1021700013602268536923F080035361236CA3B179
:102180002268136823F008031360E26D3F23934035
:10219000BB60012384F83530002384F83430236D8C
:1021A000002B3FD0204698473CE0A36C002BE7D1A2
:1021B000EBE7E36BA3B12046984711E01A6812F4ED
:1021C000807F09D11A6822F010021A60012384F876
:1021D0003530002384F83430E36B0BB12046984748
:1021E000636DFBB1636D13F0010F17D0052384F805
:1021F00035302268136823F001031360019B01331B
:102200000193AB4204D823681B6813F0010FF5D18A
:10221000012384F83530002384F83430E36C0BB1AB
:102220002046984703B0F0BD00000020B5814E1B4A
:1022300000230F2B00F2D78070B582B065E085686F
:102240004FEA430E032404FA0EF425EA0405CC6891
:1022500004FA0EF42C438460446824EA02044A68B9
:10226000C2F300129A40224342605CE0DC0808346A
:1022700050F8242003F00705AD004FF00F0E0EFAC2
:1022800005FE22EA0E0E0A69AA4042EA0E0240F852
:1022900024205CE0042200E0002202FA0EF22A432D
:1022A0000234514D45F82420504A94686FEA0C02DC
:1022B00024EA0C054E6816F4801F01D04CEA040590
:1022C0004A4CA560E46802EA04054E6816F4001F53
:1022D00001D04CEA0405454CE560646802EA040557
:1022E0004E6816F4003F01D04CEA04053F4C65608F
:1022F000246822404D6815F4803F01D04CEA040266
:102300003A4C226001330F2B6BD801229A400C68A3
:1023100004EA020C32EA0404F4D14C6804F0030429
:10232000013C012C8BD94A6802F00302032A09D030
:10233000C4685D000322AA4024EA02048A68AA4015
:102340002243C2604A6802F00302022A8ED0046867
:102350004FEA430E032202FA0EF224EA02044A680C
:1023600002F0030202FA0EF2224302604A6812F4FB
:10237000403FC7D0002201921D4A546C44F480446F
:102380005464526C02F480420192019A9C08A51C8C
:10239000154A52F8255003F0030E4FEA8E0E0F2215
:1023A00002FA0EF225EA0205124A90423FF474AF97
:1023B00002F5806290420ED002F5806290420CD00D
:1023C00002F5806290420AD002F5806290423FF4AA
:1023D00061AF072261E701225FE702225DE7032286
:1023E0005BE702B070BD704700380140003C01401F
:1023F00000380240000002400AB1816170470904C0
:1024000081617047002800F0E08170B582B0044619
:10241000036813F0010F3BD09F4B9B6803F00C0344
:10242000042B2CD09C4B9B6803F00C03082B21D071
:102430006368B3F5803F4FD0B3F5A02F52D0964BD1
:102440001A6822F480321A601A6822F480221A6014
:102450006368002B50D0FFF7E9F905468E4B1B68E7
:1024600013F4003F14D1FFF7E1F9401B6428F5D9BC
:102470000320B1E1884B5B6813F4800FD8D0864B02
:102480001B6813F4003F03D06368002B00F09F81AA
:10249000236813F0020F54D07F4B9B6813F00C0F8E
:1024A0003ED07D4B9B6803F00C03082B33D0E368D0
:1024B000002B68D0794B01221A60FFF7B7F9054667
:1024C000754B1B6813F0020F54D1FFF7AFF9401B97
:1024D0000228F5D903207FE16F4A136843F4803363
:1024E0001360B5E76C4B1A6842F480221A601A68D0
:1024F00042F480321A60ABE7FFF798F90546664B65
:102500001B6813F4003FC3D0FFF790F9401B642809
:10251000F5D9032060E1604B5B6813F4800FC6D1EE
:102520005D4B1B6813F0020F03D0E368012B40F0F2
:102530005081594A136823F0F803216943EAC10323
:102540001360236813F0080F42D063696BB3534BD9
:102550000122C3F8802EFFF769F905464E4B5B6FE9
:1025600013F0020F34D1FFF761F9401B0228F5D9AF
:10257000032031E1484A136823F0F803216943EA54
:10258000C1031360DDE7454B00221A60FFF74EF9E7
:102590000546414B1B6813F0020FD2D0FFF746F9F6
:1025A000401B0228F5D9032016E13C4B0022C3F85A
:1025B000802EFFF73BF90546374B5B6F13F0020F98
:1025C00006D0FFF733F9401B0228F5D9032003E1B9
:1025D000236813F0040F77D02F4B1B6C13F0805F30
:1025E00033D1002301932C4B1A6C42F080521A64B1
:1025F0001B6C03F080530193019B0125284B1B6842
:1026000013F4807F23D0A368012B34D0052B38D05E
:10261000214B1A6F22F001021A671A6F22F004028E
:102620001A67A368002B3DD0FFF700F906461A4B46
:102630001B6F13F0020F46D1FFF7F8F8801B41F231
:1026400088339842F3D90320C6E00025D6E7144A20
:10265000136843F480731360FFF7E8F80646104BE5
:102660001B6813F4807FCED1FFF7E0F8801B0228AF
:10267000F5D90320B0E0084A136F43F00103136754
:10268000CFE7054B1A6F42F004021A671A6F42F047
:1026900001021A67C5E700BF003802400000474248
:1026A00000700040FFF7C2F80646524B1B6F13F054
:1026B000020F08D0FFF7BAF8801B41F28833984226
:1026C000F3D9032088E0EDB9A369002B00F08380E3
:1026D000484A926802F00C02082A51D0022B17D007
:1026E000454B00221A66FFF7A1F80446414B1B68D0
:1026F00013F0007F42D0FFF799F8001B0228F5D9AC
:10270000032069E03B4A136C23F080531364DBE73A
:10271000394B00221A66FFF789F80546354B1B68CE
:1027200013F0007F06D0FFF781F8401B0228F5D98F
:10273000032051E0E369226A1343626A43EA821389
:10274000A26A5208013A43EA0243E26A43EA026398
:10275000284A5360284B01221A66FFF767F804469F
:10276000244B1B6813F0007F06D1FFF75FF8001BB6
:102770000228F5D903202FE000202DE000202BE0D7
:10278000012B2BD01B4B5B6803F48001E269914263
:1027900026D103F03F02216A8A4223D1616A47F6BB
:1027A000C0721A40B2EB811F1ED103F44031A26AFD
:1027B0005208013AB1EB024F18D103F07063E26A9C
:1027C000B3EB026F14D1002006E001207047012016
:1027D00002E0012000E0002002B070BD0120FBE714
:1027E0000120F9E70120F7E70120F5E70120F3E7F1
:1027F0000120F1E7003802400000474208B5334BA2
:102800009B6803F00C03042B5BD0082B5BD12F4B90
:102810005A6802F03F025B6813F4800F2CD02B4BF8
:102820005868C0F388104FEA401CBCEB000C6EEBFC
:102830000E0E4FEA8E1343EA9C634FEA8C11B1EB04
:102840000C0163EB0E03DB0043EA5173C90011EB8B
:10285000000C43F10003590200234FEA4C2041EAE7
:10286000DC51FDF769FE194B5B68C3F3014301338B
:102870005B00B0FBF3F027E0144B5868C0F38810FE
:102880004FEA401CBCEB000C6EEB0E0E4FEA8E13B1
:1028900043EA9C634FEA8C11B1EB0C0163EB0E032E
:1028A000DB0043EA5173C90011EB000C43F1000354
:1028B000990200234FEA8C2041EA9C51FDF73CFE2F
:1028C000D1E7034800E0034808BD00BF00380240DC
:1028D00000127A000024F400002800F09B8070B5FC
:1028E0000D4604464F4B1B6803F007038B4208D28A
:1028F000CBB24C4A1370136803F007038B4240F0CD
:102900008B80236813F0020F17D013F0040F04D04C
:10291000454A936843F4E0539360236813F0080F2B
:1029200004D0414A936843F4604393603E4A9368FD
:1029300023F0F003A1680B439360236813F0010FA9
:1029400032D06368012B21D09A1E012A25D9364A3C
:10295000126812F0020F61D033498A6822F0030234
:1029600013438B60FEF762FF06462F4B9B6803F014
:102970000C036268B3EB820F16D0FEF757FF801B83
:1029800041F288339842F0D9032042E0264A126887
:1029900012F4003FE0D101203BE0234A126812F01C
:1029A000007FD9D1012034E01E4B1B6803F00703E0
:1029B000AB4207D9EAB21B4B1A701B6803F007033E
:1029C000AB422DD1236813F0040F06D0164A93684A
:1029D00023F4E053E1680B439360236813F0080F7E
:1029E00007D0114A936823F46043216943EAC10385
:1029F0009360FFF703FF0C4B9B68C3F303130B4A71
:102A0000D35CD8400A4B18600A4B1868FEF70AFEE0
:102A1000002070BD012070470120FAE70120F8E78F
:102A20000120F6E7003C024000380240E4AF000815
:102A30000000002004000020014B1868704700BF10
:102A40000000002008B5FFF7F7FF044B9B68C3F3B5
:102A50008223034AD35CD84008BD00BF003802403F
:102A6000DCAF000808B5FFF7E7FF044B9B68C3F332
:102A70004233034AD35CD84008BD00BF003802404F
:102A8000DCAF00080F2303600B4B9A6802F00302CF
:102A900042609A6802F0F00282609A6802F4E052A2
:102AA000C2609B68DB0803F4E0530361034B1B68BF
:102AB00003F007030B60704700380240003C0240FF
:102AC0007047000090F83D30DBB2012B2FD102237C
:102AD00080F83D300268D36843F00103D360036897
:102AE000154A934218D0B3F1804F15D0A2F57C421D
:102AF000934211D002F5806293420DD002F58062BC
:102B0000934209D002F59A32934205D01A6842F0F6
:102B100001021A60002070479A6802F00702062A34
:102B200007D01A6842F001021A60002070470120A5
:102B300070470020704700BF000001407047704799
:102B400070477047704710B5044603681A6912F061
:102B5000020F11D0DA6812F0020F0DD06FF00202EE
:102B60001A610123037703689B6913F0030F70D088
:102B7000FFF7E6FF0023237723681A6912F0040F9A
:102B800012D0DA6812F0040F0ED06FF004021A614E
:102B90000223237723689B6913F4407F5FD020468C
:102BA000FFF7CEFF0023237723681A6912F0080F7E
:102BB00012D0DA6812F0080F0ED06FF008021A6116
:102BC000042323772368DB6913F0030F4ED02046DC
:102BD000FFF7B6FF0023237723681A6912F0100F5E
:102BE00012D0DA6812F0100F0ED06FF010021A61D6
:102BF000082323772368DB6913F4407F3DD0204608
:102C0000FFF79EFF0023237723681A6912F0010F54
:102C100003D0DA6812F0010F36D123681A6912F076
:102C2000800F03D0DA6812F0800F34D123681A695C
:102C300012F0400F03D0DA6812F0400F32D123684F
:102C40001A6912F0200F03D0DA6812F0200F30D189
:102C500010BDFFF774FF2046FFF773FF8AE7204699
:102C6000FFF76DFF2046FFF76CFF9BE72046FFF75D
:102C700066FF2046FFF765FFACE72046FFF75FFFE2
:102C80002046FFF75EFFBDE76FF001021A612046A4
:102C9000FFF754FFC1E76FF080021A61204600F091
:102CA0008AF8C3E76FF040021A612046FFF74AFF37
:102CB000C5E76FF020021A61204600F07BF8C7E7F5
:102CC0000368254A90420ED0B0F1804F0BD0A2F598
:102CD0007C42904207D002F58062904203D002F518
:102CE0008062904203D123F070034A6813431A4A6A
:102CF00090421AD0B0F1804F17D0A2F57C4290429A
:102D000013D002F5806290420FD002F580629042AB
:102D10000BD002F59A32904207D002F580629042C1
:102D200003D002F58062904203D123F44073CA6855
:102D3000134323F080034A69134303608B68C36223
:102D40000B688362044B984202D0012343617047B1
:102D50000B690363F9E700BF0000014040B310B501
:102D6000044690F83D30F3B1022384F83D3021460B
:102D700051F8040BFFF7A4FF012384F8463084F8D0
:102D80003E3084F83F3084F8403084F8413084F895
:102D9000423084F8433084F8443084F8453084F875
:102DA0003D30002010BD80F83C30FFF789FEDBE7A6
:102DB000012070477047704710B5044602681369D8
:102DC00023F44053C1680B431361836802691A43BB
:102DD00043691A43C3691A430168CB6823F4164355
:102DE00023F00C031343CB600268536923F4407350
:102DF00081690B4353610368314A934206D002F55F
:102E00008062934202D0FFF71DFE01E0FFF72AFE29
:102E1000E369B3F5004F29D00021031849411B187D
:102E200041F10001C90041EA5371DB0018186368E1
:102E30004FEA83024FEA937341F10001FDF77CFBF7
:102E4000204AA2FB00314909642303FB11031B0143
:102E50003233A2FB03235B0903F0F00202EB011201
:102E600003F00F03216813448B6010BD0023021888
:102E700043EB0301121841F10001C90041EA52710C
:102E8000D200101841F10001626892185B41FDF711
:102E900053FB0C4AA2FB00314909642303FB1103D5
:102EA000DB003233A2FB03235B095A0002F4F87201
:102EB00002EB011203F00703216813448B60D4E78F
:102EC000001001401F85EB512DE9F84305460F46E0
:102ED00016469946DDF820802B681C6837EA040402
:102EE0000CBF01240024B4422DD1B8F1FF3FF3D030
:102EF000B8F1000F05D0FEF799FCA0EB09004045A2
:102F0000EAD92A6802F10C0353E8003F23F4D07396
:102F10000C3242E800310029F3D12A6802F114038F
:102F200053E8003F23F00103143242E80031002946
:102F3000F3D1202385F83D3085F83E30002385F815
:102F40003C30032000E00020BDE8F88358B310B502
:102F5000044690F83D300BB3242384F83D302268BA
:102F6000D36823F40053D3602046FFF725FF22687F
:102F7000136923F4904313612268536923F02A03F1
:102F800053612268D36843F40053D3600020206467
:102F9000202384F83D3084F83E3010BD80F83C306A
:102FA000FEF70AFBD8E7012070472DE9F04182B017
:102FB0001E4690F83D30DBB2202B54D104460D461E
:102FC0009046002953D0002A53D090F83C30012B72
:102FD00051D0012380F83C3000230364212380F882
:102FE0003D30FEF723FC0746A4F82480A4F8268091
:102FF000A368B3F5805F05D04FF00008002384F884
:103000003C3012E0236913B14FF00008F6E7A84600
:103010000025F3E738F8023B2268C3F30803536046
:10302000E28C92B2013A92B2E284E38C9BB273B129
:1030300000963B46002280212046FFF745FFE0B97D
:10304000002DE7D015F8012B23685A60E8E70096B9
:103050003B46002240212046FFF736FF78B9202367
:1030600084F83D3000E0022002B0BDE8F08101208C
:10307000FAE70120F8E70220F6E70320F4E703204F
:10308000F2E700F1080343604FF0FF328260C36053
:1030900003610023036070470023036170474368A6
:1030A0004B609A688A6051609960086103680133D7
:1030B0000360704730B40D68B5F1FF3F11D000F1E7
:1030C00008031C465B681A68AA42FAD963684B6019
:1030D00099608C606160086103680133036030BCF3
:1030E00070470469F2E70369416882688A60416851
:1030F00051605A68824206D0002202611A68013A81
:103100001A601868704782685A60F5E782B0002339
:1031100001930D4B1B68B3F1FF3F08D04FF05003F4
:1031200083F31188BFF36F8FBFF34F8FFEE74FF02C
:10313000500383F31188BFF36F8FBFF34F8F019B51
:10314000002BFCD002B0704708000020084800683F
:10315000006880F308884FF0000080F3148862B69E
:1031600061B6BFF34F8FBFF36F8F00DF00BF00006A
:1031700008ED00E0DFF80C00016841F47001016027
:103180007047000088ED00E04FF0807340F8043C89
:1031900021F0010140F8081C054B40F80C3C40F8B8
:1031A000202C6FF0020340F8243C4438704700BFE5
:1031B0000D310008000000000000000000000000C9
:1031C000074B19680868B0E8F04F80F30988BFF32F
:1031D0006F8F4FF0000080F311887047AFF30080CD
:1031E000144900204FF0500383F31188BFF36F8F11
:1031F000BFF34F8F0B4A136801331360012B00D0CC
:1032000070474FF0E023D3F8043D13F0FF0FF7D0E1
:103210004FF0500383F31188BFF36F8FBFF34F8FCD
:10322000FEE700BF08000020094B1B6843B94FF0C0
:10323000500383F31188BFF36F8FBFF34F8FFEE707
:10324000013B034A13600BB983F31188704700BF39
:103250000800002000000000000000000000000046
:10326000EFF30980BFF36F8F154B1A681EF0100F34
:1032700008BF20ED108A20E9F04F10602DE9090009
:103280004FF0500080F31188BFF34F8FBFF36F8F63
:1032900001F0DCF84FF0000080F3118809BC1968D8
:1032A0000868B0E8F04F1EF0100F08BFB0EC108AAD
:1032B00080F30988BFF36F8F704700BFAFF30080C2
:1032C0001449002008B54FF0500383F31188BFF371
:1032D0006F8FBFF34F8F00F08BFF28B14FF0E023CB
:1032E0004FF08052C3F8042D002383F3118808BDEA
:1032F0004FF0E022002313619361054B1B680549E1
:10330000A1FB03139B09013B536107231361704722
:1033100000000020D34D62104FF0E023D3F8002DC1
:103320003D4B9A421CD04FF0E023D3F8002D3B4B8D
:103330009A421ED030B583B0394B1A78D2B201927E
:10334000FF221A701B78DBB28DF803309DF8033032
:1033500003F05003334A1370334B07221A601BE00B
:103360004FF0500383F31188BFF36F8FBFF34F8F7C
:10337000FEE74FF0500383F31188BFF36F8FBFF365
:103380004F8FFEE7284A1368013B13609DF8033016
:103390005B00DBB28DF803309DF8033013F0800F33
:1033A000F0D1214B1B68032B08D04FF0500383F35F
:1033B0001188BFF36F8FBFF34F8FFEE71B021A4ACE
:1033C000136003F4E0631360019BDBB2144A1370D3
:1033D0004FF0E024D4F8203D43F47003C4F8203DBE
:1033E000D4F8203D43F07043C4F8203DFFF780FF40
:1033F00000250E4B1D60FFF7BDFED4F8343F43F0AF
:103400004043C4F8343FFFF7A1FE01F01FF8FFF777
:103410007DFE284603B030BD71C20F4170C20F411E
:1034200000E400E0C80B0020C40B002008000020CE
:10343000EFF305830F2B0FD9114A9B5CDBB2114AC6
:1034400012789A4208D94FF0500383F31188BFF3E2
:103450006F8FBFF34F8FFEE74FF0E023D3F80C3DA3
:1034600003F4E063084A1268934208D94FF050030E
:1034700083F31188BFF36F8FBFF34F8FFEE7704761
:10348000F0E300E0C80B0020C40B0020124A12F049
:10349000070F1ED0D11D21F00701C1F57053134451
:1034A0000A460E480260002141601344083B23F0A5
:1034B00007030B48036059601960991A5160136043
:1034C000084B1960084B1960084B4FF000421A6016
:1034D00070474FF47053E4E7EC0B0020E40B00203E
:1034E000E00B0020D80B0020DC0B0020CC0B0020D0
:1034F000164B1A461B688342FBD3516802EB010C42
:10350000844509D0416800EB010C634509D0036094
:10351000904219D0106070474068014451601046D5
:10352000F0E710B40A4C2468A3420BD05B6819443E
:10353000416013681B680360904200D010605DF822
:10354000044B70470460F7E7704700BFE40B0020AE
:10355000E00B002038B5044600F042FE384B1B68F3
:10356000B3B1384B1B681C4250D1002C50D004F131
:10357000080214F0070F02D022F007020832002AD6
:1035800055D0314B1B68934253D330490C6804E04B
:10359000FFF77CFFE5E721461C466368934202D2B1
:1035A0002368002BF7D1264B1B68A34243D00D683C
:1035B000083523680B6063689B1A102B10D9A0187C
:1035C00010F0070F08D04FF0500383F31188BFF3BA
:1035D0006F8FBFF34F8FFEE743606260FFF788FF96
:1035E000626819490B689B1A0B60194909688B427C
:1035F00001D217490B60134B1B6813436360002310
:103600002360144A13680133136002E0002500E0D0
:10361000002500F079FE15F0070F0ED04FF0500393
:1036200083F31188BFF36F8FBFF34F8FFEE7002541
:10363000EFE70025EDE70025EBE7284638BD00BFA2
:10364000E00B0020CC0B0020DC0B0020E40B002062
:10365000D80B0020D40B0020002834D038B5044605
:10366000A0F1080550F8043C174A1268134208D12B
:103670004FF0500383F31188BFF36F8FBFF34F8F69
:10368000FEE750F8081C41B14FF0500383F3118856
:10369000BFF36F8FBFF34F8FFEE723EA020340F8BB
:1036A000043C00F09DFD54F8041C084A13680B44C8
:1036B00013602846FFF71CFF054A136801331360A7
:1036C00000F022FE38BD7047CC0B0020DC0B002040
:1036D000D00B00200346406A18B11B6B1868C0F17C
:1036E0000700704710B50446FFF77CFDA26BE36B43
:1036F0009A4204D00024FFF797FD204610BD012414
:10370000F9E710B50446FFF76DFDA36B23B901245B
:10371000FFF78AFD204610BD0024F9E770B5044686
:103720001546866B026C5AB903681BB1002001363E
:10373000A66370BD806800F0F3FF0023A360F6E786
:103740006DB94068FCF712FF6368226C1344636034
:10375000A268934219D3236863602846E7E7C068EC
:10376000FCF704FFE368226C51429B1AE360226875
:10377000934202D2A3680B44E360022D01D00020E3
:10378000D5E726B1013E0020D1E72846CFE700204B
:10379000CDE738B50546FFF725FD95F8454064B2FD
:1037A00001E0013C64B2002C0ADD6B6A43B105F113
:1037B000240000F0B5FE0028F3D000F045FFF0E74C
:1037C000FF2385F84530FFF72FFDFFF70BFD95F838
:1037D000444064B201E0013C64B2002C0ADD2B6974
:1037E00043B105F1100000F09BFE0028F3D000F07B
:1037F0002BFFF0E7FF2385F84430FFF715FD38BDB8
:1038000038B5E0B10D460446FFF7ECFC2368E26BE7
:10381000216C01FB0230A0600020A0636360013ACC
:1038200002FB0133E360FF2384F8443084F8453021
:10383000FDB9236963B9FFF7F7FC012038BD4FF0EC
:10384000500383F31188BFF36F8FBFF34F8FFEE7F1
:1038500004F1100000F064FE0028ECD04FF0E023EB
:103860004FF08052C3F8042DBFF34F8FBFF36F8F1B
:10387000E1E704F11000FFF704FC04F12400FFF776
:1038800000FCD8E710B5034602980C4631B9006039
:10389000C36304640121FFF7B3FF10BD0260F7E7C3
:1038A00040B94FF0500383F31188BFF36F8FBFF31C
:1038B0004F8FFEE7F0B583B00D461446064601FB78
:1038C00000F04830FFF746FE074650B1002380F86D
:1038D00046300090234600F1480229463046FFF763
:1038E000D1FF384603B0F0BDF0B585B0019288B184
:1038F0000F461D460446B1B1022D20D1E36B012BCA
:103900001DD04FF0500383F31188BFF36F8FBFF3C7
:103910004F8FFEE74FF0500383F31188BFF36F8F93
:10392000BFF34F8FFEE7036C002BE5D04FF0500341
:1039300083F31188BFF36F8FBFF34F8FFEE700F063
:1039400089FE064658B9019B002B48D04FF0500322
:1039500083F31188BFF36F8FBFF34F8FFEE700260D
:103960003DE02A4639462046FFF7D8FE636A7BB918
:1039700048B14FF0E0234FF08052C3F8042DBFF35D
:103980004F8FBFF36F8FFFF74FFC012005B0F0BDE5
:1039900004F1240000F0C4FD0028F4D04FF0E0232F
:1039A0004FF08052C3F8042DBFF34F8FBFF36F8FDA
:1039B000E9E7FFF739FC0020E8E702A800F0F6FD90
:1039C000012619E0002384F8443021E0002384F824
:1039D000453023E02046FFF7DCFE00F095FCFFF7C2
:1039E00001FCA26BE36B9A42BBD3022DB9D0019BC1
:1039F000002BDED0002EE0D0FFF716FC00F0F0FB2D
:103A0000FFF7F0FB94F8442052B2B2F1FF3FD9D057
:103A100094F8452052B2B2F1FF3FD7D0FFF704FC33
:103A200001A902A800F0CEFDD8B92046FFF75AFE42
:103A30000028CFD0019904F1100000F059FD204674
:103A4000FFF7A7FE00F060FC0028C8D14FF0E0238C
:103A50004FF08052C3F8042DBFF34F8FBFF36F8F29
:103A6000BDE72046FFF795FE00F04EFC00208DE7F5
:103A700048B108B5002181600160C1600B460A466B
:103A8000FFF732FF08BD704710B502460021012044
:103A9000FFF706FF0446FFF7EBFF204610BD68B1B5
:103AA00070B50C460546036C8BB14FF0500383F3A1
:103AB0001188BFF36F8FBFF34F8FFEE74FF05003B6
:103AC00083F31188BFF36F8FBFF34F8FFEE7036857
:103AD000EBB1FFF7ADFCEFF311864FF0500383F32A
:103AE0001188BFF36F8FBFF34F8FAA6BEB6B9342BD
:103AF00026D995F845305BB20132AA63B3F1FF3F96
:103B000011D001335BB285F84530012019E083689C
:103B1000002BDED04FF0500383F31188BFF36F8F7B
:103B2000BFF34F8FFEE76B6A0BB9012009E005F187
:103B3000240000F0F5FC38B144B10120206000E021
:103B4000002086F3118870BD0120FAE70120F8E714
:103B500070B584B0019158B10446036C8BB14FF03D
:103B6000500383F31188BFF36F8FBFF34F8FFEE7CE
:103B70004FF0500383F31188BFF36F8FBFF34F8F64
:103B8000FEE700F067FD054650B9019B5BB14FF0C1
:103B9000500383F31188BFF36F8FBFF34F8FFEE79E
:103BA0000026354655E0064653E0013BA3632368F3
:103BB0003BB123694BB9FFF737FB0126304604B010
:103BC00070BD00F05FFEA060F3E704F1100000F0AC
:103BD000A7FC0028EFD04FF0E0234FF08052C3F84D
:103BE000042DBFF34F8FBFF36F8FE4E746B14FF063
:103BF000500383F31188BFF36F8FBFF34F8FFEE73E
:103C0000FFF712FBDAE702A800F0D0FC01252AE05A
:103C1000002384F8443032E0002384F8453034E057
:103C2000FFF7E0FAA06800F025FD0646FFF7FCFA72
:103C30003BE02046FFF7ADFD00F066FB09E02046C3
:103C4000FFF7A7FD00F060FB2046FFF75AFD0028B4
:103C500042D1FFF7C7FAA36B002BA6D1019B002B23
:103C6000C4D0002DCFD0FFF7DFFA00F0B9FAFFF78C
:103C7000B9FA94F844305BB2B3F1FF3FC8D094F87E
:103C800045305BB2B3F1FF3FC6D0FFF7CDFA01A9D3
:103C900002A800F097FC0028D1D12046FFF731FDA3
:103CA0000028C6D02368002BBAD0019904F1240063
:103CB00000F01EFC2046FFF76CFD00F025FB0028FD
:103CC000C7D14FF0E0234FF08052C3F8042DBFF36B
:103CD0004F8FBFF36F8FBCE70EB900266EE7FFF77B
:103CE00081FA2046FFF7F6FC0146A06800F070FD5F
:103CF000FFF79AFAF1E70000084B1B681B6823B92D
:103D0000074B4FF0FF321A607047044B1B68DB68AB
:103D1000DB685A68024B1A60704700BF5C4800209D
:103D2000F44700202DE9F04707469846089DDDF846
:103D300024900A9C266B02F18042013A06EB82062F
:103D400026F00706002964D008464FF0000CBCF1AD
:103D50000F0F09D810F80C2004EB0C0383F8342063
:103D600012B10CF1010CF2E7002384F84330062D68
:103D700000D90625E56265644FF0000AC4F848A042
:103D8000201DFFF789F904F11800FFF785F9246178
:103D9000C5F10705A5616462C4F870A184F874A137
:103DA0004FF49072514604F1500001F055F81B4B4E
:103DB000636503F16802A265D033E3650122002345
:103DC000C4E93A2343F20E33A4F8F0304AF6CD3377
:103DD000A4F8F23041F23423A4F8F4304EF26D63CB
:103DE000A4F8F6304DF6EC63A4F8F8300523A4F8F7
:103DF000FA300B23A4F8FC30424639463046FFF730
:103E0000C3F92060B9F1000F01D0C9F80040BDE846
:103E1000F087002384F83430A9E700BF1849002058
:103E200038B5002407E004EB840293000E481844E0
:103E3000FFF727F90134062CF5D90C4D2846FFF77A
:103E400020F90B4C2046FFF71CF90A48FFF719F937
:103E50000948FFF716F90948FFF713F9084B1D60E9
:103E6000084B1C6038BD00BF884800207448002003
:103E700060480020444800203048002018480020B6
:103E80005C4800205848002010B50446FFF7AAF906
:103E9000214A136801331360204B1B685BB1204B30
:103EA0001B686BB91D4B1B68DA6AE36A9A4207D834
:103EB0001A4B1C6004E0194B1C601368012B28D0BE
:103EC000184A136801331360E06A01238340164ADD
:103ED00011680B43136000EB8000211D134B03EBB3
:103EE0008000FFF7DCF8FFF79FF90D4B1B687BB1F3
:103EF0000A4B1B68DA6AE36A9A4209D24FF0E02360
:103F00004FF08052C3F8042DBFF34F8FBFF36F8F74
:103F100010BDFFF785FFD3E71448002014490020A7
:103F200008480020F84700200C480020884800205E
:103F300010B50446503000F0F3FF94F8753163B1CA
:103F4000012B11D0022B0ED04FF0500383F31188B8
:103F5000BFF36F8FBFF34F8FFEE7206BFFF77CFB44
:103F60002046FFF779FB10BD2046FFF775FBFAE707
:103F70000F4B1B68D3B110B5FFF734F90D4BDB685D
:103F8000DC68201DFFF7AFF80B4A1368013B136094
:103F9000074A1368013B1360FFF746F92046FFF715
:103FA000C7FF034B1B68002BE6D110BD704700BF55
:103FB0002C480020304800201448002008B5FFF7A6
:103FC000D7FF074B1B68012BF9D94FF0E0234FF0C7
:103FD0008052C3F8042DBFF34F8FBFF36F8FEEE70E
:103FE0008848002070B504460D461D4B1E681D4BC9
:103FF00018680430FFF777F848B91A4B1B68DB6A7A
:1040000001229A4018490B6823EA02030B60B4F1BD
:10401000FF3F0DD03444134B1B685C60A64210D99F
:10402000124B18680F4B19680431FFF743F870BD45
:10403000002DEFD00B4B196804310D48FFF72FF816
:10404000F5E70C4B1868074B19680431FFF732F895
:10405000094B1B68A342EAD9074B1C60E7E700BF86
:1040600010480020144900200C4800205848002027
:10407000184800205C480020F447002030B587B085
:104080000B9C8CB10C9DC5B14FF4BC750495049D7F
:10409000B5F5BC7F1AD04FF0500383F31188BFF3FE
:1040A0006F8FBFF34F8FFEE74FF0500383F31188FC
:1040B000BFF36F8FBFF34F8FFEE74FF0500383F3D3
:1040C0001188BFF36F8FBFF34F8FFEE7049D0C9DE8
:1040D0002C63022485F8754100240394029505ACF5
:1040E00001940A9C0094FFF71DFE0C98FFF7CCFE8C
:1040F000059807B030BD2DE9F04385B007468846E6
:1041000014461E469000FFF725FA10B381464FF47F
:10411000BC70FFF71FFA0546A8B1C0F83090002325
:1041200080F87531039302900D9B01930C9B0093D3
:104130003346224641463846FFF7F4FD2846FFF74E
:10414000A3FE012007E04846FFF786FA4FF0FF3054
:1041500001E04FF0FF3005B0BDE8F08310B588B046
:1041600000240594069407AA06A905A8FCF786FE74
:10417000059B0293069B019300942346079A1049DE
:104180001048FFF77BFF104B1860B8B14FF0500399
:1041900083F31188BFF36F8FBFF34F8F0B4B1B68F7
:1041A00050330B4A13600B4B4FF0FF321A600A4B2F
:1041B00001221A60094B1C60FFF7AEF808B010BD71
:1041C000FCAF0008BD3F0008F04700201449002064
:1041D00018000020F4470020084800201048002064
:1041E000024A136801331360704700BFEC47002098
:1041F000F8B53A4B1B68002B69D1394B1D68013566
:104200001D60C5B9374B1B681B6843B14FF05003A5
:1042100083F31188BFF36F8FBFF34F8FFEE7314AEF
:104220001168314B186810601960304A1368013307
:104230001360FFF761FD2E4B1B68AB423DD9002791
:104240002C4B1B68DB6A03EB83039A002A4B9B58B9
:10425000012B00D90127294B1B68002B3CD00127DB
:104260003AE001271F4B1B681B6843B31D4B1B68BB
:10427000DB68DC6863689D4226D3261D3046FEF766
:1042800032FFA36A1BB104F11800FEF72CFFE36AAA
:1042900001229A401A49086802430A6003EB83032B
:1042A0009A00314614481044FEF7F9FEE26A114BB9
:1042B0001B68DB6A9A42D4D2D4E70027D2E70C4BC2
:1042C0004FF0FF321A60BBE7094A1360B8E70D4AA6
:1042D00013680133136000273846F8BDEC4700200F
:1042E000104800205C48002058480020FC4700206F
:1042F000F44700201449002088480020004800208E
:104300000C4800200448002038B5354B1B6843B9E1
:104310004FF0500383F31188BFF36F8FBFF34F8FBC
:10432000FEE7FEF75FFF2E4B1A68013A1A601B6822
:10433000002B4FD12B4B1B680BB900244BE0002402
:10434000294B1B681BB3284BDB68DC6804F11800A1
:10435000FEF7C9FE251D2846FEF7C5FEE06A0123CB
:104360008340224A11680B43136000EB800029460A
:104370001F4B03EB8000FEF792FEE26A1D4B1B68A9
:10438000DB6A9A42DCD31C4B01221A60D8E70CB1DD
:10439000FFF7B2FC194B1C6884B9174B1C68D4B1E9
:1043A0004FF0E0234FF08052C3F8042DBFF34F8F3E
:1043B000BFF36F8F01240EE0013C07D0FFF718FF19
:1043C0000028F9D00C4B01221A60F5E70B4B0022B4
:1043D0001A60E2E70024FEF727FF204638BD00BF41
:1043E000EC47002014480020444800200C480020DE
:1043F000884800201449002000480020044800207C
:1044000010B5A8B10446104B1B6843B14FF05003E0
:1044100083F31188BFF36F8FBFF34F8FFEE7FFF772
:10442000DFFE00212046FFF7DDFDFFF76DFF48B9F5
:104430004FF0E0234FF08052C3F8042DBFF34F8FAD
:10444000BFF36F8F10BD00BFEC470020224B1B68ED
:104450001BB1224B01221A607047204B00221A60C8
:104460001F4B1B68B3FA83F3DBB2C3F11F0303EBEB
:1044700083018A001B498A5842B94FF0500383F3E5
:104480001188BFF36F8FBFF34F8FFEE7154803EB23
:1044900083018A00024451684968516003EB830C30
:1044A0004FEA8C020832024491420DD003EB8303A1
:1044B0009A000C4B13445B68DA680B4B1A601B685C
:1044C00050330A4A13607047486862469100054AB3
:1044D0000A445060EAE700BFEC4700200048002093
:1044E0000C480020884800201449002018000020B3
:1044F00058B110B50C46094A11681831FEF7DAFDBB
:1045000001212046FFF76EFD10BD4FF0500383F3ED
:104510001188BFF36F8FBFF34F8FFEE71449002060
:1045200038B5C368DC6824B304F118052846FEF7E3
:10453000DAFD184B1B682BBB251D2846FEF7D3FD63
:10454000E06A01238340144A11680B43136000EBB7
:1045500080002946114B03EB8000FEF7A0FDE26AC4
:104560000F4B1B68DB6A9A4211D901200D4B186072
:1045700038BD4FF0500383F31188BFF36F8FBFF343
:104580004F8FFEE729460848FEF789FDE7E7002040
:10459000EEE700BFEC4700200C48002088480020D0
:1045A000144900200048002044480020034B1B68A9
:1045B0000360034B1B684360704700BFFC4700204B
:1045C00010480020F8B5C8B10C460546F9B1FEF711
:1045D00009FE1B4B19686B68C81A2268B2F1FF3FCD
:1045E00026D0184E36682F68B74201D08B4224D9A6
:1045F000824215D80023236001241AE04FF05003B3
:1046000083F31188BFF36F8FBFF34F8FFEE74FF037
:10461000500383F31188BFF36F8FBFF34F8FFEE713
:104620005B1A134423602846FFF7C0FF002400E014
:104630000024FEF7F9FD2046F8BD0124F9E700BF8C
:1046400010480020FC470020014B01221A607047EF
:1046500000480020054B1B6833B1054B1B680BB1AC
:104660000020704702207047012070470848002052
:10467000EC470020002848D038B50446C36A254AD4
:104680001268D26A934238D28269002A05DB214A35
:104690001268D26AC2F107028261616903EB830387
:1046A0001D4A02EB8303994205D01A4B1B68DB6A53
:1046B000E362012038BD251D2846FEF714FD38B9F8
:1046C000E36A01229A4015490B6823EA02030B6052
:1046D000104B1B68D86AE062012404FA00F30F4A09
:1046E00011680B43136000EB800029460A4B03EB73
:1046F0008000FEF7D4FC2046DCE7426C054B1B68CB
:10470000DB6A9A4203D30020D4E7002070470120DF
:10471000D0E700BF14490020884800200C48002042
:1047200000284BD038B50446264B1B68834208D07E
:104730004FF0500383F31188BFF36F8FBFF34F8F98
:10474000FEE7836C43B94FF0500383F31188BFF346
:104750006F8FBFF34F8FFEE7013B8364C16A426CEA
:1047600091422DD00BB1002038BD051D2846FEF723
:10477000BAFC68B9E36A03EB8302920012498A58D3
:1047800032B901229A4011490B6823EA02030B60F7
:10479000606CE062C0F10703A361012404FA00F336
:1047A0000A4A11680B43136000EB80002946064B50
:1047B00003EB8000FEF773FC2046D5E7002070472E
:1047C0000020D1E714490020884800200C48002030
:1047D00000284FD038B50446836C43B94FF05003DE
:1047E00083F31188BFF36F8FBFF34F8FFEE7426CE7
:1047F0008A4200D20A46E16A914201D0012B00D0E0
:1048000038BD1D4B1B68A3422BD0E262A369002B6D
:1048100002DBC2F10702A261626901EB8101174B61
:1048200003EB81039A42EBD1251D2846FEF75BFC82
:1048300038B9E36A01229A4011490B6823EA02035E
:104840000B60E06A012383400D4A11680B4313603B
:1048500000EB80002946094B03EB8000FEF71FFCAC
:10486000CEE74FF0500383F31188BFF36F8FBFF390
:104870004F8FFEE7704700BF144900208848002092
:104880000C480020054B1B6823B1044B1A68936C3D
:1048900001339364014B1868704700BF144900202E
:1048A0002DE9F047089D0C46002B4ED194468C45CF
:1048B0008646B2FA82F262D94AB1C2F1200391402F
:1048C00020FA03F30CFA02FC194300FA02FE4FEA45
:1048D0001C471FFA8CF6B1FBF7F44FEA1E4307FBA7
:1048E000141143EA014304FB06F199420AD91CEB77
:1048F000030304F1FF3080F01281994240F20F81EE
:10490000023C6344591A1FFA8EF3B1FBF7F007FB20
:10491000101143EA014300FB06F69E420AD91CEB44
:10492000030300F1FF3180F0FC809E4240F2F980E9
:10493000634402389B1B40EA044000211DB1D34070
:104940000022C5E90032BDE8F0878B4205D90DB1E0
:10495000C5E9000100210846F5E7B3FA83F1002913
:1049600046D1A34202D39042C0F0F080861A64EB95
:1049700003030120002DE6D0C5E90063E3E7002A28
:1049800040F09080A1EB0C044FEA1C481FFA8CF712
:104990000121B4FBF8F64FEA1E4308FB164443EA34
:1049A000044307FB06F0984208D91CEB030306F109
:1049B000FF3402D2984200F2CD8026461C1A1FFA1C
:1049C0008EF3B4FBF8F008FB104443EA044300FB09
:1049D00007F79F4208D91CEB030300F1FF3402D212
:1049E0009F4200F2B0802046DB1B40EA0640A5E76C
:1049F000C1F120068B4022FA06F71F4320FA06FC7D
:104A000004FA01F343EA0C03F44000FA01F8380C0D
:104A10004FEA1349B4FBF0FE1FFA87FC00FB1E446B
:104A200049EA04440EFB0CF9A14502FA01F20AD945
:104A30003C190EF1FF3A80F08480A14540F281805C
:104A4000AEF1020E3C44A4EB09041FFA83F9B4FB57
:104A5000F0F300FB134449EA044403FB0CFCA445B7
:104A600007D93C1903F1FF3067D2A44565D9023B51
:104A70003C4443EA0E40A0FB0293A4EB0C049C428E
:104A8000CE469C4651D34ED055B1B8EB0E0364EBE5
:104A90000C0404FA06F6CB401E43CC40C5E9006482
:104AA000002150E7C2F1200320FA03F10CFA02FCC6
:104AB00024FA03F394400C434FEA1C4800FA02FE28
:104AC0001FFA8CF7B3FBF8F008FB1031230C43EA14
:104AD000014300FB07F1994208D91CEB030300F1E5
:104AE000FF362CD299422AD9023863445B1AA4B209
:104AF000B3FBF8F108FB113344EA034401FB07F36D
:104B0000A34208D91CEB040401F1FF3613D2A342DF
:104B100011D902396444E41A41EA004139E70446F4
:104B2000F0E6084606E7C845AED2B9EB020E63EBE5
:104B3000070C0138A8E73146EDE7034699E7304610
:104B4000D4E7D6467FE7634402384DE7064623465E
:104B500008460FE7023E634430E700BF024A0349BC
:104B6000034800F0C9B800BF0C0000209174000891
:104B7000200000200C4B4168994210B5044601D03A
:104B800002F086FCA168094B994202D0204602F04F
:104B90007FFCE168064B994204D02046BDE81040F6
:104BA00002F076BC10BD00BF1849002080490020EB
:104BB000E84900202DE9F843314C324B3248DFF808
:104BC000DC90DFF8DC80314F186000252946042393
:104BD000082204F15C002E4EE360C4E90055C4E9EC
:104BE0000455A5606566A56100F036F904F158002A
:104BF000C4E90749C4E90987E66200F02FFA2946AB
:104C0000244B6367082204F1C400C4E91A55C4E9BF
:104C10001E552567C4F8CC50C4F8805000F01CF92C
:104C200004F1680304F1C000C4F88430C4E9229898
:104C3000C4E9247600F012FA174BC4F8DC30294698
:104C400004F596700822C4E93455C4E93855C4F80F
:104C5000D850C4F83451C4F8E85000F0FDF804F11D
:104C6000D003C4E93D87C4F8F09004F59470C4F80B
:104C7000FC60C4F8EC30BDE8F84300F0EFB900BFC9
:104C800018490020504A00205D4B00082D4E0008B6
:104C9000514E00080900010012000200C94D000831
:104CA000ED4D000810B504460A4800F0DBF9636BCF
:104CB00023B9094B094A1B68626323B1BDE8104060
:104CC000044800F0D1B9FFF775FFBDE81040014876
:104CD00000F0CAB9604A0020504A0020754B000815
:104CE000014800F0BFB900BF604A0020014800F051
:104CF000BBB900BF604A00202DE9F84380460F464B
:104D000016464FF00009D6E90154013D11D4A3899C
:104D1000012B05F1FF3508D9B4F90E3001332146D6
:104D200003D04046B84749EA00096B1C04F1680407
:104D3000EDD13668002EE6D14846BDE8F88300BFC5
:104D40000CB410B51F4B00291C689CB035DB4FF428
:104D50000273ADF81430029006901FAB18D00139E1
:104D60004FF6FF7204910791ADF8162002A91E9A22
:104D70000193204600F0ACFD421C01DA8B23236036
:104D8000029B00221A701CB0BDE8104002B07047B0
:104D90004FF6FF7204910791ADF8162002A91E9AF2
:104DA0000193204600F094FD431C01DA8B2323601D
:104DB0001CB0BDE8104002B070478B2323604FF059
:104DC000FF30F5E71800002010B50C46B1F90E10C1
:104DD00000F0EAF8002803DB236D0344236510BDCF
:104DE000A38923F48053A38110BD00BF2DE9F041B6
:104DF0000C46B1F90C101F46CB05054616460BD4E0
:104E000021F48051A1813B46B4F90E103246284668
:104E1000BDE8F04100F0DEB8B4F90E100223002224
:104E200000F0ACF8B4F90C10EAE700BF10B50C467E
:104E3000B1F90E1000F0A2F8B4F90C30421C0EBF0C
:104E400023F4805343F480532065A38110BD00BF39
:104E5000B1F90E1000F052B8830730B547D0541E98
:104E6000002A3ED0CAB2034601E0013C39D303F820
:104E7000012B9D07F9D1032C2CD9CDB205EB0525CB
:104E80000F2C05EB054535D9A4F1100222F00F0CCB
:104E900003F1100EE6444FEA121C1A4615605560E5
:104EA0009560D56010327245F8D10CF1010214F012
:104EB0000C0F03EB021204F00F0C13D0ACF104033F
:104EC00023F003030433134442F8045B9A42FBD1FA
:104ED0000CF003042CB1C9B21C4403F8011B9C4222
:104EE000FBD130BD64461346002CF4D1F9E70346EC
:104EF0001446C0E71A46A446E0E700BF38B5074DA0
:104F00000022044608462A60FCF712FC431C00D02D
:104F100038BD2B68002BFBD0236038BD544A0020DD
:104F2000154B1B68834225D0416C70B5054681B195
:104F300000268C593CB121462468284600F002F92D
:104F4000002CF8D1696C0436802EF2D1284600F08E
:104F5000F9F8A96B11B1284600F0F4F8E96C11B129
:104F6000284600F0EFF86B6B1BB12846BDE8704097
:104F7000184770BD704700BF1800002038B50C46B8
:104F8000084D8446114620461A4600232B6064468D
:104F9000FCF7D8FB431C00D038BD2B68002BFBD09E
:104FA000236038BD544A002038B50C46084D84466D
:104FB000114620461A4600232B606446FCF79AFBF4
:104FC000431C00D038BD2B68002BFBD0236038BDBC
:104FD000544A002038B50C46084D844611462046F8
:104FE0001A4600232B606446FCF794FB431C00D058
:104FF00038BD2B68002BFBD0236038BD544A0020FD
:10500000014B1868704700BF1800002070B50F4BA7
:105010000F4DAB42A3EB050607D0B610002455F8A0
:10502000043B01349847A642F9D805F083FF094DA7
:10503000094B5E1BAB424FEAA60606D0002455F88A
:10504000043B01349847A642F9D870BDF4B3000878
:10505000F4B30008F4B30008FCB30008704700BFC5
:10506000704700BF704700BF704700BF024B13B1CD
:10507000024800F005B87047000000007D77000886
:10508000002301461A46184602F0CEBB2DE9F8432C
:1050900006460820894602F085FBDFF8A480054615
:1050A000304600F007FCD8F808305F6827F00307A7
:1050B000A7F11104A4EB09042C44B4FBF5F4013C62
:1050C00005FB04F4A54208DC0021304602F044FB55
:1050D000D8F808303B44984205D0304600F0F0FB49
:1050E0000020BDE8F8836142304602F035FB013014
:1050F0000FD0114AD8F808303F1B47F001075F6016
:10510000136830461B1B136000F0DAFB0120BDE87A
:10511000F8830021304602F01FFBD8F80820831ADC
:105120000F2BDADD43F001035360044B02491B6887
:10513000C01A0860D1E700BF684A0020440100207F
:105140005001002000297CD02DE9F0410C4680461A
:1051500000F0B0FB54F8043C764FA4F1080523F0AE
:1051600001016818BE684268864222F0030200F01E
:105170008380DE07426000EB020C33D454F8084C05
:10518000DCF804302D1B2144AC6807F1080C6445A1
:1051900003F0010364D0D5F80CE0C4F80CE0CEF8BD
:1051A0000840002B00F0818041F001036B6001603A
:1051B000B1F5007F22D27868CB080122490901337A
:1051C0008A40024357F833107A6007EBC302083A6B
:1051D000C5E9021247F83350CD604046BDE8F041C2
:1051E00000F06EBBDCF80430DB072BD541F0010387
:1051F000B1F5007F44F8043C0160DCD3B1F5206FC9
:105200004FEA512353D28B0903F1390003F13802DD
:10521000C300F818FB580838984203D163E09B6834
:10522000984204D05A6822F003028A42F7D8D8681C
:10523000C5E902308560DD604046BDE8F04100F020
:105240003FBB7047114407F1080C836863453FD0AA
:10525000C268DA60936041F001036B606950A7E7B0
:10526000002B61D10A44D0E90213CB60996042F06F
:1052700001036B60AA50B0E7DB070A4407D454F877
:10528000083CED1A1A44D5E90213CB60996042F04C
:1052900001036B60284BBD601B6893429DD8274B70
:1052A00040461968FFF7F2FE97E71144CDE7142B4B
:1052B00008D9542B1FD80B0B03F16F0003F16E02BA
:1052C000C300A6E703F15C0003F15B02C300A0E7A3
:1052D00041F001033D617D61C5F808C0C5F80CC00F
:1052E0006B60695079E779689210012404FA02F240
:1052F0000A437A609CE7B3F5AA7F06D8CB0B03F18B
:10530000780003F17702C30083E740F254529342DE
:1053100006D88B0C03F17D0003F17C02C30078E713
:105320004FF47E737E2274E741F001036B600160ED
:1053300053E700BF5001002048010020984A002098
:105340002DE9F04F01F10B05162D85B0064624D846
:10535000102900F2B18000F0ADFA102518234FF0AB
:10536000020CBA4F3B44A3F108025C68944200F07F
:1053700022816368E268A16823F00303CA602344C2
:10538000304691605A6842F001025A60083400F0D9
:1053900097FA204605B0BDE8F08F35F0070500F11B
:1053A0008B80A94200F2888000F084FAB5F5FC7F7A
:1053B000C0F073816B0A00F08380042B00F222811D
:1053C000AB0903F1390C03F1380E4FEACC039F4FC0
:1053D0003B44A3F108005C68A04207D10DE0002A1D
:1053E000E16880F2E280884207D00C46636823F0CF
:1053F00003035A1B0F2AF2DDF446DFF864823C698E
:10540000444500F0BF80636823F00309A9EB05035E
:105410000F2B00F34781002BC7E9048880F231810C
:10542000B9F5007FD7F804E080F0CC804FEAD901CD
:1054300001314FEA5919012303FA09F357F83120D2
:10544000A2604EEA030E07EBC103083BE360C7F816
:1054500004E047F83140D4604FEAAC0301209840A3
:10546000704534D810EA0E0F07D12CF0030C400021
:1054700010EA0E0F0CF1040CF9D007EBCC0A5246DF
:10548000E146D1680EE04B6823F00303A3EB050E61
:10549000BEF10F0F0C46C96800F3C180BEF1000FCA
:1054A00080F2E2808A42EED109F1010919F0030F7E
:1054B00002F10802E5D121E10C233360002468E702
:1054C0004FF400734FF0400C4FF03F0E7FE7BC6885
:1054D000636823F00309A94503D3A9EB05030F2B48
:1054E00053DC5B4BDFF87CB11B68082003F110082C
:1054F00002F058F9DBF8003001900133A84404EBC6
:10550000090205D008F1FF388044434203EA080845
:1055100041463046029202F01FF9B0F1FF3F029A75
:10552000824600F0DC80824200F2D780494B01992C
:105530001868404401F1FF311860844640F0FC8057
:105540001AEA010F40F0F880D7F808A0C84448F0E4
:105550000102CAF80420404B1968814238BF186024
:105560003E4B1968814238BF1860544622F0030848
:10557000A845A8EB050301D30F2B06DC304600F04D
:105580009FF99BE7D7F804E066E7621943F001034F
:1055900045F0010565603046BA60536000F090F94F
:1055A0000834204605B0BDE8F08FA2682344D160DE
:1055B00030468A60E6E6DC68A3427FF4DAAE0CF19E
:1055C000020C1AE7B9F5206F4FEA59227ED3142A4C
:1055D00000F2158102F15C03DB005B32F918FB5825
:1055E0000839994203D1F0E09B68994204D05A6887
:1055F00022F003024A45F7D8D968C4E902318C6029
:10560000DC6029E7142B6DD9542B00F201812B0BA0
:1056100003F16F0C03F16E0E4FEACC03D7E6304670
:10562000A668621945F001056560F1608E604EF074
:105630000101C7E90422C2F80880C2F80C80516059
:1056400044F803E000F03CF90834A2E650010020E1
:10565000984A0020684A0020944A0020904A00207E
:105660005801002044010020234430465A6842F08B
:1056700001025A6054F8083FD9608B6000F020F9AD
:1056800087E6A1443046D9F8043043F00103C9F855
:105690000430083400F014F97BE64FEAD50C05F12C
:1056A00008035EE6621943F0010145F001056560FB
:1056B0003046C7E90422C2F80880C2F80C80516065
:1056C00044F8093000F0FCF8083462E64FEA991219
:1056D00002F13903DB00383280E7BC4224D0BC68D9
:1056E000626843E703F15C0C03F15B0E4FEACC0305
:1056F0006DE65AF80839534540F0D8801CF0030F86
:105700000CF1FF3CF5D17B6823EA00037B6040008D
:1057100098423FF6DCAE18B9D9E6400009F1040919
:105720001842FAD0CC46A8E6614B0199186808EBFC
:10573000000C0139C3F800C0DBF8000001301BBFCA
:10574000AAEB02026244CBF800A01A601AF007022A
:10575000CDE9022342D0C2F10802019B9244D04419
:10576000134408EA01001A1A02EA010B59463046AE
:1057700001F0F2FF421C039B7AD0A0EB0A0000EB81
:105780000B081868C7F808A048F001025844BC424A
:10579000CAF8042018603FF4DEAEB9F10F0F42D909
:1057A0006168A9F10C0222F0070201F00101114326
:1057B0006160A1184FF0050C0F2AC1F804C0C1F8B0
:1057C00008C04AD8DAF80420C5E69210012000FA91
:1057D00002F24EEA020EC7F804E00EE7019B0AEB64
:1057E00008020A409A1A02EA010B5946304601F0B3
:1057F000B3FF431C039BC0D1DDF808B0C1E7542AB6
:1058000015D84FEA193202F16F03DB006E32E5E67C
:10581000B3F5AA7F15D8EB0B03F1780C03F1770EE3
:105820004FEACC03D3E50123CAF80430A6E6B2F56B
:10583000AA7F25D84FEAD93202F17803DB0077320C
:10584000CCE640F25452934225D8AB0C03F17D0CC8
:1058500003F17C0E4FEACC03B9E5304604F10801B0
:105860000193FFF76FFC019BD7F808A01868A9E720
:10587000029A083A9044A8EB0A084FF0000B80E720
:1058800040F254539A420DD84FEA994202F17D03F7
:10589000DB007C32A2E64FF47E734FF07F0C4FF0BA
:1058A0007E0E94E54FF47E737E2297E67B682EE7AA
:1058B000684A00200148FFF7D5BB00BF584A0020C6
:1058C0000148FFF7D1BB00BF584A0020000000008C
:1058D0002DE9F04F2DED028BD9B00C460591914684
:1058E0000993834601F034FF036816931846FAF7CC
:1058F000E7FE08221490002128A8FFF7ADFAA3893B
:105900001A0603D52369002B00F092879FED807B58
:105910000023CDE92D33CDE91733CDE919338DEDD2
:10592000127B2FAA0F932C92904615930693CDF8D5
:105930000CB04D46039F2E46774BD3F8E44001F060
:1059400001FF034628A80090324624A93846A04704
:10595000002800F0A980C0F29F80249A252A0346DF
:1059600001D01E44E8E7771B044640F0A0800023E6
:105970008DF88730994607934FF0FF327378049281
:10598000741C0134A3F120025A2A00F2C780DFE818
:1059900012F0F002C500C500EC02C500C500C5004C
:1059A0006A00C500C50053026202C5005E02FE0225
:1059B000C500FA025B005B005B005B005B005B0004
:1059C0005B005B005B00C500C500C500C500C500ED
:1059D000C500C5004601C500D201180346014601B5
:1059E0004601C500C500C500C500E802C500C500E8
:1059F0006702C500C500C500FC01C500D502C50091
:105A0000C5001007C500C500C500C500C500C5001C
:105A1000C500C5004601C500D2012E02460146015F
:105A2000460198022E027F00C500B102C500A20205
:105A30000407C3027F00C500FC017D000B07C50001
:105A4000C5003407C5007D00A3F13002002114F821
:105A5000013B01EB810102EB4101A3F13002092A74
:105A6000F5D907918EE7039F384601F071FE436830
:105A700019931846FAF724FE1A900646384601F0A4
:105A800067FE83681793002E40F02086237878E71E
:105A9000237849F0200974E70822002128A8FFF79D
:105AA000DBF901231E4447E7771B044611D02E9BE8
:105AB0003B442E932D9B0133072BC8E900572D93B0
:105AC0001ADC08F10808069B3B440693002C7FF47F
:105AD0004EAF2E9BDDF80CB0002B41F0F581059BFD
:105AE0009B8903F04003002B41F0D083069859B006
:105AF000BDEC028BBDE8F08F059903982CAA03F04A
